{
  "_format": "hh-sol-artifact-1",
  "contractName": "VotingBlock",
  "sourceName": "contracts/EVM.sol",
  "abi": [
    {
      "inputs": [],
      "stateMutability": "nonpayable",
      "type": "constructor"
    },
    {
      "inputs": [
        {
          "internalType": "address",
          "name": "Voter_address",
          "type": "address"
        }
      ],
      "name": "Add_Voter_address",
      "outputs": [],
      "stateMutability": "nonpayable",
      "type": "function"
    },
    {
      "inputs": [
        {
          "internalType": "uint256",
          "name": "",
          "type": "uint256"
        }
      ],
      "name": "Party_Name",
      "outputs": [
        {
          "internalType": "string",
          "name": "",
          "type": "string"
        }
      ],
      "stateMutability": "view",
      "type": "function"
    },
    {
      "inputs": [
        {
          "internalType": "address",
          "name": "_voter_Address",
          "type": "address"
        },
        {
          "internalType": "string",
          "name": "PartyName",
          "type": "string"
        }
      ],
      "name": "Vote_init",
      "outputs": [],
      "stateMutability": "nonpayable",
      "type": "function"
    },
    {
      "inputs": [],
      "name": "count",
      "outputs": [
        {
          "internalType": "uint256[]",
          "name": "",
          "type": "uint256[]"
        }
      ],
      "stateMutability": "view",
      "type": "function"
    }
  ],
  "bytecode": "0x608060405260405180604001604052806040518060400160405280600581526020017f466972737400000000000000000000000000000000000000000000000000000081525081526020016040518060400160405280600681526020017f5365636f6e64000000000000000000000000000000000000000000000000000081525081525060069060026200009592919062000588565b506040518060800160405280735b38da6a701c568545dcfcb03fcb875f56beddc473ffffffffffffffffffffffffffffffffffffffff1673ffffffffffffffffffffffffffffffffffffffff16815260200173356a192b7913b04c54574d18c28d46e6395428ab73ffffffffffffffffffffffffffffffffffffffff1673ffffffffffffffffffffffffffffffffffffffff16815260200173da4b9237bacccdf19c0760cab7aec4a8359010b073ffffffffffffffffffffffffffffffffffffffff1673ffffffffffffffffffffffffffffffffffffffff16815260200173da4b9237bacccdf19c0760cab7aec4a8059010b073ffffffffffffffffffffffffffffffffffffffff1673ffffffffffffffffffffffffffffffffffffffff168152506007906004620001c9929190620005ef565b506040518060a00160405280735b38da6a701c568545dcfcb03fcb875f56beddc473ffffffffffffffffffffffffffffffffffffffff1673ffffffffffffffffffffffffffffffffffffffff16815260200173ab8483f64d9c6d1ecf9b849ae677dd3315835cb273ffffffffffffffffffffffffffffffffffffffff1673ffffffffffffffffffffffffffffffffffffffff1681526020017378731d3ca6b7e34ac0f824c42a7cc18a495cabab73ffffffffffffffffffffffffffffffffffffffff1673ffffffffffffffffffffffffffffffffffffffff168152602001734b20993bc481177ec7e8f571cecae8a9e22c02db73ffffffffffffffffffffffffffffffffffffffff1673ffffffffffffffffffffffffffffffffffffffff16815260200173dee827fa9445cfc741f111971a6a8f2f1a8107cf73ffffffffffffffffffffffffffffffffffffffff1673ffffffffffffffffffffffffffffffffffffffff168152506008906005620003439291906200067e565b503480156200035157600080fd5b50336000806101000a81548173ffffffffffffffffffffffffffffffffffffffff021916908373ffffffffffffffffffffffffffffffffffffffff16021790555060005b600680549050811015620003ff576000600360068381548110620003be57620003bd6200082b565b5b90600052602060002001604051620003d791906200096a565b9081526020016040518091039020819055508080620003f690620009bc565b91505062000395565b5060005b600780549050811015620004c057600160056000600784815481106200042e576200042d6200082b565b5b9060005260206000200160009054906101000a900473ffffffffffffffffffffffffffffffffffffffff1673ffffffffffffffffffffffffffffffffffffffff1673ffffffffffffffffffffffffffffffffffffffff16815260200190815260200160002060006101000a81548160ff0219169083151502179055508080620004b790620009bc565b91505062000403565b5060005b600880549050811015620005815760016004600060088481548110620004ef57620004ee6200082b565b5b9060005260206000200160009054906101000a900473ffffffffffffffffffffffffffffffffffffffff1673ffffffffffffffffffffffffffffffffffffffff1673ffffffffffffffffffffffffffffffffffffffff16815260200190815260200160002060006101000a81548160ff02191690831515021790555080806200057890620009bc565b915050620004c4565b5062000a0a565b828054828255906000526020600020908101928215620005dc579160200282015b82811115620005db578251829080519060200190620005ca9291906200070d565b5091602001919060010190620005a9565b5b509050620005eb91906200079e565b5090565b8280548282559060005260206000209081019282156200066b579160200282015b828111156200066a5782518260006101000a81548173ffffffffffffffffffffffffffffffffffffffff021916908373ffffffffffffffffffffffffffffffffffffffff1602179055509160200191906001019062000610565b5b5090506200067a9190620007c6565b5090565b828054828255906000526020600020908101928215620006fa579160200282015b82811115620006f95782518260006101000a81548173ffffffffffffffffffffffffffffffffffffffff021916908373ffffffffffffffffffffffffffffffffffffffff160217905550916020019190600101906200069f565b5b509050620007099190620007c6565b5090565b8280546200071b9062000889565b90600052602060002090601f0160209004810192826200073f57600085556200078b565b82601f106200075a57805160ff19168380011785556200078b565b828001600101855582156200078b579182015b828111156200078a5782518255916020019190600101906200076d565b5b5090506200079a9190620007c6565b5090565b5b80821115620007c25760008181620007b89190620007e5565b506001016200079f565b5090565b5b80821115620007e1576000816000905550600101620007c7565b5090565b508054620007f39062000889565b6000825580601f1062000807575062000828565b601f016020900490600052602060002090810190620008279190620007c6565b5b50565b7f4e487b7100000000000000000000000000000000000000000000000000000000600052603260045260246000fd5b7f4e487b7100000000000000000000000000000000000000000000000000000000600052602260045260246000fd5b60006002820490506001821680620008a257607f821691505b60208210811415620008b957620008b86200085a565b5b50919050565b600081905092915050565b60008190508160005260206000209050919050565b60008154620008ee8162000889565b620008fa8186620008bf565b945060018216600081146200091857600181146200092a5762000961565b60ff1983168652818601935062000961565b6200093585620008ca565b60005b83811015620009595781548189015260018201915060208101905062000938565b838801955050505b50505092915050565b6000620009788284620008df565b915081905092915050565b7f4e487b7100000000000000000000000000000000000000000000000000000000600052601160045260246000fd5b6000819050919050565b6000620009c982620009b2565b91507fffffffffffffffffffffffffffffffffffffffffffffffffffffffffffffffff821415620009ff57620009fe62000983565b5b600182019050919050565b610d468062000a1a6000396000f3fe608060405234801561001057600080fd5b506004361061004c5760003560e01c806306661abd14610051578063517922b01461006f5780636b6fc06d1461008b5780637f861f57146100a7575b600080fd5b6100596100d7565b604051610066919061063a565b60405180910390f35b610089600480360381019061008491906106ce565b6101b1565b005b6100a560048036038101906100a09190610841565b61029a565b005b6100c160048036038101906100bc91906108c9565b6104c6565b6040516100ce919061097e565b60405180910390f35b6060600060068054905067ffffffffffffffff8111156100fa576100f9610716565b5b6040519080825280602002602001820160405280156101285781602001602082028036833780820191505090505b50905060005b6006805490508110156101a957600360068281548110610151576101506109a0565b5b906000526020600020016040516101689190610acf565b90815260200160405180910390205482828151811061018a576101896109a0565b5b60200260200101818152505080806101a190610b15565b91505061012e565b508091505090565b3373ffffffffffffffffffffffffffffffffffffffff1660008054906101000a900473ffffffffffffffffffffffffffffffffffffffff1673ffffffffffffffffffffffffffffffffffffffff161461023f576040517f08c379a000000000000000000000000000000000000000000000000000000000815260040161023690610bd0565b60405180910390fd5b6001600560008373ffffffffffffffffffffffffffffffffffffffff1673ffffffffffffffffffffffffffffffffffffffff16815260200190815260200160002060006101000a81548160ff02191690831515021790555050565b81600560008273ffffffffffffffffffffffffffffffffffffffff1673ffffffffffffffffffffffffffffffffffffffff16815260200190815260200160002060009054906101000a900460ff16610327576040517f08c379a000000000000000000000000000000000000000000000000000000000815260040161031e90610c3c565b60405180910390fd5b600460003373ffffffffffffffffffffffffffffffffffffffff1673ffffffffffffffffffffffffffffffffffffffff16815260200190815260200160002060009054906101000a900460ff166103b3576040517f08c379a00000000000000000000000000000000000000000000000000000000081526004016103aa90610ca8565b60405180910390fd5b33600260006101000a81548173ffffffffffffffffffffffffffffffffffffffff021916908373ffffffffffffffffffffffffffffffffffffffff16021790555082600160006101000a81548173ffffffffffffffffffffffffffffffffffffffff021916908373ffffffffffffffffffffffffffffffffffffffff1602179055506003826040516104459190610cf9565b9081526020016040518091039020600081548092919061046490610b15565b91905055506000600560008573ffffffffffffffffffffffffffffffffffffffff1673ffffffffffffffffffffffffffffffffffffffff16815260200190815260200160002060006101000a81548160ff021916908315150217905550505050565b600681815481106104d657600080fd5b9060005260206000200160009150905080546104f1906109fe565b80601f016020809104026020016040519081016040528092919081815260200182805461051d906109fe565b801561056a5780601f1061053f5761010080835404028352916020019161056a565b820191906000526020600020905b81548152906001019060200180831161054d57829003601f168201915b505050505081565b600081519050919050565b600082825260208201905092915050565b6000819050602082019050919050565b6000819050919050565b6105b18161059e565b82525050565b60006105c383836105a8565b60208301905092915050565b6000602082019050919050565b60006105e782610572565b6105f1818561057d565b93506105fc8361058e565b8060005b8381101561062d57815161061488826105b7565b975061061f836105cf565b925050600181019050610600565b5085935050505092915050565b6000602082019050818103600083015261065481846105dc565b905092915050565b6000604051905090565b600080fd5b600080fd5b600073ffffffffffffffffffffffffffffffffffffffff82169050919050565b600061069b82610670565b9050919050565b6106ab81610690565b81146106b657600080fd5b50565b6000813590506106c8816106a2565b92915050565b6000602082840312156106e4576106e3610666565b5b60006106f2848285016106b9565b91505092915050565b600080fd5b600080fd5b6000601f19601f8301169050919050565b7f4e487b7100000000000000000000000000000000000000000000000000000000600052604160045260246000fd5b61074e82610705565b810181811067ffffffffffffffff8211171561076d5761076c610716565b5b80604052505050565b600061078061065c565b905061078c8282610745565b919050565b600067ffffffffffffffff8211156107ac576107ab610716565b5b6107b582610705565b9050602081019050919050565b82818337600083830152505050565b60006107e46107df84610791565b610776565b905082815260208101848484011115610800576107ff610700565b5b61080b8482856107c2565b509392505050565b600082601f830112610828576108276106fb565b5b81356108388482602086016107d1565b91505092915050565b6000806040838503121561085857610857610666565b5b6000610866858286016106b9565b925050602083013567ffffffffffffffff8111156108875761088661066b565b5b61089385828601610813565b9150509250929050565b6108a68161059e565b81146108b157600080fd5b50565b6000813590506108c38161089d565b92915050565b6000602082840312156108df576108de610666565b5b60006108ed848285016108b4565b91505092915050565b600081519050919050565b600082825260208201905092915050565b60005b83811015610930578082015181840152602081019050610915565b8381111561093f576000848401525b50505050565b6000610950826108f6565b61095a8185610901565b935061096a818560208601610912565b61097381610705565b840191505092915050565b600060208201905081810360008301526109988184610945565b905092915050565b7f4e487b7100000000000000000000000000000000000000000000000000000000600052603260045260246000fd5b7f4e487b7100000000000000000000000000000000000000000000000000000000600052602260045260246000fd5b60006002820490506001821680610a1657607f821691505b60208210811415610a2a57610a296109cf565b5b50919050565b600081905092915050565b60008190508160005260206000209050919050565b60008154610a5d816109fe565b610a678186610a30565b94506001821660008114610a825760018114610a9357610ac6565b60ff19831686528186019350610ac6565b610a9c85610a3b565b60005b83811015610abe57815481890152600182019150602081019050610a9f565b838801955050505b50505092915050565b6000610adb8284610a50565b915081905092915050565b7f4e487b7100000000000000000000000000000000000000000000000000000000600052601160045260246000fd5b6000610b208261059e565b91507fffffffffffffffffffffffffffffffffffffffffffffffffffffffffffffffff821415610b5357610b52610ae6565b5b600182019050919050565b7f4163636573732044656e69656420746f20466f722041646d696e20707269766960008201527f6c65676500000000000000000000000000000000000000000000000000000000602082015250565b6000610bba602483610901565b9150610bc582610b5e565b604082019050919050565b60006020820190508181036000830152610be981610bad565b9050919050565b7f496e76616c696420616464726573730000000000000000000000000000000000600082015250565b6000610c26600f83610901565b9150610c3182610bf0565b602082019050919050565b60006020820190508181036000830152610c5581610c19565b9050919050565b7f4163636573732044656e69656420746f20454d41430000000000000000000000600082015250565b6000610c92601583610901565b9150610c9d82610c5c565b602082019050919050565b60006020820190508181036000830152610cc181610c85565b9050919050565b6000610cd3826108f6565b610cdd8185610a30565b9350610ced818560208601610912565b80840191505092915050565b6000610d058284610cc8565b91508190509291505056fea2646970667358221220c5e3ce0169a405891ca984c27333f91f1a096d1737cfd3c57bad401d5af789b164736f6c634300080b0033",
  "linkReferences": {},
  "deployedLinkReferences": {}
}